:0400000069EF3CF078
:10784C0001010101C80E00D0E82EFDD712003DEC5D
:10785C003CF084EC3CF034EC3CF0FDD7A6EC3CF076
:10786C00030E1A6EE80E196E28EC3CF012000F0E87
:10787C00C16E000E926E000E936E000E946E9568A3
:10788C0012000BC019F00A0E52EC3CF00AC019F0B1
:10789C00140E52EC3CF012001A6E0A0E1A18D8B4E0
:1078AC0019C089FF140E1A18D8B419C08AFF1E0EFD
:1078BC001A18D8B419C08BFF280E1A18D8A41200A5
:1078CC0019C08CFF12004C0EF66E780EF76E000E7F
:1078DC00F86E00EE15F010EE04F00900F5CFEEFF97
:1078EC00E550E150FAE100EE01F0100EEE6AE80608
:1078FC00FDE1000EF86E00012DEF3CF0000E146E51
:10790C00140E136E000E126E320E116E000E0D6EF2
:10791C00000E0C6E000E096E3F0E196E0A0E52EC24
:10792C003CF03F0E196E140E52EC3CF0000E196E2A
:10793C001E0E52EC3CF0185055EC3FF0186E120035
:10794C001350055C14500658D8B003D0054A062ACB
:10795C0006D0000E066E000E056E47EC3CF0115082
:10796C00035C12500458D8B003D0034A042A06D042
:10797C00000E046E000E036E11EC3DF00750015C1E
:10798C0008500258D8B003D0014A022A1200000E47
:10799C00026E000E016ED4EC3CF012000D50D8A417
:1079AC000CD00C50D8A409D0185055EC3FF0186EE0
:1079BC00000E196E1E0E52EC3CF00D04D8A40CD027
:1079CC000C50D8A409D0185061EC3DF0186EF00E94
:1079DC00196E1E0E52EC3CF00D50D8A40CD00C04B9
:1079EC00D8A409D0185007EC3EF0186E0F0E196E83
:1079FC001E0E52EC3CF00D04D8A412000C04D8A4BA
:107A0C0012001850ADEC3EF0186EFF0E196E1E0EE3
:107A1C0052EC3CF01200000E83B0010E196E19509E
:107A2C00175CD8B005D00D50D8A402D0010E0D6E45
:107A3C001750195CD8B005D00D04D8A402D0000E94
:107A4C000D6E19C017F0000E83B2010E196E19508D
:107A5C00165CD8B005D00950D8A402D0010E096E1E
:107A6C001650195CD8B005D00904D8A402D0000E69
:107A7C00096E19C016F0000E84B0010E196E195063
:107A8C00155CD8B007D00C50D8A402D0010E01D090
:107A9C00000E0C6E19C015F00950D8A404D0030EBA
:107AAC00086EE80E076E0904D8A41200010E086EC9
:107ABC00F40E076E1200196E66D0020E1A6E000ECE
:107ACC000B6E5B0E5AD0040E1A6E000E0B6E660E09
:107ADC0054D0050E1A6E000E0B6E6D0E4ED0070EA6
:107AEC001A6E000E25D0080E1A6E000E0B6E7F0E4D
:107AFC0044D00A0E1A6E060E0B6E3F0E3ED00B0EC5
:107B0C001A6E060E0B6E060E38D00D0E1A6E060E81
:107B1C000B6E4F0E32D00E0E1A6E060ED7D7100EFD
:107B2C001A6E060E0B6E7D0E28D0110E1A6E060EF6
:107B3C000B6E070E22D0130E1A6E060E0B6E6F0E06
:107B4C001CD0140E1A6E5B0ED7D7160E1A6E5B0E67
:107B5C00B7D7170E1A6E5B0EDBD7190E1A6E5B0EAB
:107B6C00BBD71A0E1A6E5B0EDDD71C0E1A6E5B0E8F
:107B7C00BDD71D0E1A6E5B0EE1D70A6E40D0010EFA
:107B8C001A6E000EBFD71950010AD8B496D7030A43
:107B9C00D8B499D7060AD8B49CD7010AD8B49FD7C1
:107BAC00020AD8B4A0D70F0AD8B4A3D7020AD8B403
:107BBC00A6D7010AD8B4A9D7060AD8B4ACD7030AF9
:107BCC00D8B4ADD71E0AD8B4B0D7010AD8B4B3D73D
:107BDC00020AD8B4B6D7070AD8B4B7D7020AD8B4B1
:107BEC00B8D7010AD8B4B9D70E0AD8B4BAD7030A91
:107BFC00D8B4BBD7060AD8B4BCD7010AC0D71A5020
:107C0C001200196E64D01C0E1A6E5B0E0B6E7F0E7A
:107C1C0058D01B0E1A6E5B0E0B6E070E52D01A0E3E
:107C2C001A6E5B0E0B6E7D0E4CD0190E1A6E5B0E1F
:107C3C0023D0180E1A6E5B0E0B6E660E42D0160E0B
:107C4C001A6E5B0E0B6E5B0E3CD0150E1A6E5B0E35
:107C5C000B6E060E36D0140E1A6E5B0E0B6E3F0EAC
:107C6C0030D0120E1A6E060ED1D7100E1A6E060EEA
:107C7C00D9D70F0E1A6E060E0B6E6D0E22D00E0E8D
:107C8C001A6E060ED9D70C0E1A6E060EDBD70A0E1C
:107C9C001A6E060EE3D7090E1A6E000E0B6E6F0EDF
:107CAC0010D0080E1A6E000EB1D7060E1A6E000E0A
:107CBC00B9D7040E1A6E000EBFD7010E1A6E000E45
:107CCC00C7D70A6E42D01E0E1A6E4F0EC7D7195068
:107CDC00010AD8B4F8D7050AD8B4EFD7020AD8B439
:107CEC00E8D70E0AD8B4E1D7010AD8B4DAD7030A18
:107CFC00D8B4D1D7060AD8B4CAD7020AD8B4C3D7D5
:107D0C00010AD8B4BCD71F0AD8B4B3D7020AD8B466
:107D1C00ACD7060AD8B4A5D7010AD8B49CD7030AA5
:107D2C00D8B493D70E0AD8B48AD7010AD8B481D75D
:107D3C00030AD8B47AD7010AD8B471D7070AD8B4D1
:107D4C0068D7020AD8B45FD7BED71A501200196E82
:107D5C0066D01C0E1A6E5B0E0B6E7F0E5AD01A0E6E
:107D6C001A6E5B0E0B6E7D0E54D0190E1A6E5B0ED6
:107D7C000B6E6D0E4ED0170E1A6E5B0E25D0160EB6
:107D8C001A6E5B0E0B6E5B0E44D0140E1A6E5B0EED
:107D9C000B6E3F0E3ED0130E1A6E060E0B6E6F0E50
:107DAC0038D0110E1A6E060E0B6E070E32D0100E56
:107DBC001A6E060ED7D70E0E1A6E060E0B6E660EC8
:107DCC0028D00D0E1A6E060E0B6E4F0E22D00B0E17
:107DDC001A6E060E0B6E060E1CD00A0E1A6E060ECE
:107DEC00D7D7080E1A6E000EB7D7070E1A6E000EF4
:107DFC00DBD7050E1A6E000EBBD7040E1A6E000EE2
:107E0C00DDD7020E1A6E000EBDD7010E1A6E000ED3
:107E1C00E1D70A6E42D01D0E1A6E5B0EBFD71950F9
:107E2C00010AD8B4F8D7030AD8B4EFD7060AD8B4E5
:107E3C00E8D7010AD8B4E1D7020AD8B4DAD70F0AC6
:107E4C00D8B4D3D7020AD8B4CCD7010AD8B4C5D782
:107E5C00060AD8B4BCD7030AD8B4B3D71E0AD8B410
:107E6C00AAD7010AD8B4A3D7020AD8B49AD7070A5A
:107E7C00D8B491D7020AD8B488D7010AD8B47FD71E
:107E8C000E0AD8B478D7030AD8B46FD7060AD8B478
:107E9C0066D7010AD8B45DD7BED71A501200196E36
:107EAC0068D0010E1A6E000E0B6E060E5CD0040E1E
:107EBC001A6E000E0B6E660E56D0060E1A6E000E63
:107ECC000B6E7D0E50D0080E1A6E000E23D0090ECC
:107EDC001A6E000E0B6E6F0E46D00A0E1A6E060E40
:107EEC000B6E3F0E40D00C0E1A6E060E0B6E5B0E18
:107EFC003AD00E0E1A6E060EDDD70F0E1A6E060E47
:107F0C000B6E6D0E30D0100E1A6E060ED9D7120EE7
:107F1C001A6E060E0B6E7F0E26D0140E1A6E5B0EAA
:107F2C00DFD7150E1A6E5B0EBFD7160E1A6E5B0ED0
:107F3C00DDD7180E1A6E5B0EBDD7190E1A6E5B0EBE
:107F4C00DFD71A0E1A6E5B0EBBD71B0E1A6E5B0EAA
:107F5C000B6E070E08D01C0E1A6E5B0EDBD71E0EB6
:107F6C001A6E4F0EBDD70A6E43D0000E1A6E000E5D
:107F7C00B7D71950000AD8B494D7010AD8B497D7F8
:107F8C00050AD8B49AD7020AD8B49DD70E0AD8B429
:107F9C009ED7010AD8B4A1D7030AD8B4A4D7060A2D
:107FAC00D8B4A7D7020AD8B4A8D7010AD8B4ABD78B
:107FBC001F0AD8B4ACD7020AD8B4AFD7060AD8B4C3
:107FCC00B0D7010AD8B4B1D7030AD8B4B2D70E0AC5
:107FDC00D8B4B3D7010AD8B4B4D7030AD8B4B5D738
:107FEC00010AD8B4B8D7070AD8B4B9D7020ABDD792
:047FFC001A50120005
:020000040020DA
:08000000FFFFFFFFFFFFFFFF00
:020000040030CA
:0E000000000C1F1EFF8381FF0FC00FE00F409A
:00000001FF
